:020000020000FC
:1000000008E00EBF0FE50DBF0FEF07BB8C9A8D9A6E
:10001000959808E308BB0E94600002E008BB0E94BC
:10002000600001E008BB0E9460000CE008BB0E9479
:10003000600006E008BB0E94600000E808BB0E9468
:10004000600000E007B903EC06B9369A3699FECF96
:1000500084B195B150E0539573E1C2977A95E9F771
:10006000C297CAF75A9574E1C2967A95E9F730E0DB
:100070003395C297C297E2F73A95C296C29640E08E
:1000800043950A97EAF74A950A9660E3560F360FAA
:10009000460F860F959801E008BB0E946000959A74
:1000A00058BB0E94600038BB0E94600048BB0E94A1
:1000B000600088BB0E9460000E946A000C942500CA
:1000C000949A2FEF10E000001A95E9F72A95D1F7DE
:1000D000949808950FE02FEF1FEF00001A95E9F7AD
:0A00E0002A95D1F70A95B9F70895A3
:00000001FF
