:100000000C942A000C943F000C943F000C943F0089
:100010000C943F000C943F000C943F000C943F0064
:100020000C943F000C943F000C943F000C943F0054
:100030000C943F000C943F000C943F000C943F0044
:100040000C943F000C943F000C943F000C943F0034
:100050000C943F0011241FBECFE5D8E0DEBFCDBF1A
:1000600012E0A0E6B0E0EAEDF0E002C005900D92EB
:10007000A036B107D9F70E9441000C946B000C9494
:100080000000CF93DF93CDB7DEB7D2500FB6F89410
:10009000DEBF0FBECDBF8FEF84BB80E092E0E0E615
:1000A000F0E0DE01119601900D920197E1F780E0FA
:1000B00090E00CC0FC01EE0FFF1F21E030E02C0FA0
:1000C0003D1FE20FF31F208125BB01968F3F910555
:0A00D00089F384F3ECCFF894FFCF1E
:1000DA007F008200850088008B008F0092009500C7
:1000EA0098009B009E00A100A400A700AA00AD00F2
:1000FA00B000B300B500B800BB00BE00C100C30029
:10010A00C600C800CB00CD00D000D200D500D70071
:10011A00D900DB00DD00DF00E100E300E500E700D5
:10012A00E900EB00EC00EE00EF00F100F200F30052
:10013A00F500F600F700F800F900FA00FA00FB00F3
:10014A00FC00FC00FD00FD00FD00FE00FE00FE00BC
:10015A00FE00FE00FE00FE00FD00FD00FC00FC00AB
:10016A00FB00FB00FA00F900F800F700F600F500C2
:10017A00F400F300F100F000EF00ED00EB00EA00FC
:10018A00E800E600E400E200E000DE00DC00DA005D
:10019A00D800D600D300D100CF00CC00CA00C700D7
:1001AA00C400C200BF00BC00BA00B700B400B1006E
:1001BA00AE00AB00A800A600A3009F009C00990017
:1001CA009600930090008D008A00870084008100C9
:1001DA007D007A007700740071006E006B00680081
:1001EA00650062005F005B00580056005300500033
:1001FA004D004A004700440042003F003C003A00DC
:10020A003700340032002F002D002B002800260072
:10021A002400220020001E001C001A0018001600EC
:10022A001400130011000F000E000D000B000A004D
:10023A000900080007000600050004000300030087
:10024A00020002000100010000000000000000009E
:10025A00000000000000010001000100020002008D
:10026A000300040004000500060007000800090056
:10027A000B000C000D000F001000120013001500F7
:10028A00170019001B001D001F0021002300250074
:10029A00270029002C002E003100330036003800D8
:1002AA003B003D0040004300460049004B004E0021
:1002BA005100540057005A005D0060006300660058
:1002CA0069006C006F007300760079007C007F0083
:00000001FF
