:020000020000FC
:1000000008E00EBF0FE50DBF0FE3002E06E0102E37
:100010000BE5202E0FE4302E06E6402E0DE6502E86
:100020000DE7602E07E0702E0FE7802E0FE6902E72
:100030000FEF0ABBB898C09A8A98929AA0E00C91E8
:100040000BBB06B3017059F40E943A000E944200B3
:10005000A395AA3009F4A0E00C910BBBF2CF00B33A
:10006000047079F70E943A000E944600AA95A2F710
:10007000A9E0F2CF28EC3FEF00003A95E9F72A9586
:10008000D1F7089506B30170E9F3089500B3047041
:04009000E9F30895F3
:00000001FF
