:020000020000FC
:100000000FEF07BB01BB08E00EBF0FE50DBF00E21D
:1000100007B907E806B900E0802E902EA02EB02E7A
:10002000C02ED02E369A3699FECFDC2CCB2CBA2C93
:10003000A92C982C04B115B1812E40E005E0D09E8A
:100040001194410D0024112404E1C09E1194410D2E
:10005000002411240FE4B09E1194410D00241124BA
:100060000FE4A09E410D0024112404E1909E410D57
:100070000024112405E0809E410D002411244058E5
:1000800048BBD0CF91E0A1E00000AA95E9F79A958E
:04009000D1F7089507
:00000001FF
